:020000000C945E
:1000020046000C9400000C9475000C9400000C94B3
:1000120000000C9400000C9400000C9400000C945E
:1000220000000C9400000C9400000C94A6000C94A8
:1000320000000C9400000C9400000C9400000C943E
:1000420049010C9400000C9400000C9400000C94E4
:1000520000000C9400000C9400000C9400000C941E
:1000620000000C94000000000000000000000000EE
:100072000000010001000C000300680001000A03F7
:10008200740001000C0376000000F894EE27EFBB29
:10009200F1E0F5BFE5BF8DE0A2E0BB27ED938A95C5
:1000A200E9F780E098E0A0E0B1E0ED930197E9F78D
:1000B200E8E7F0E085919591009761F0A591B591FF
:1000C20005901590BF01F00105900D920197E1F79F
:1000D200FB01F0CFE0E0EEBBEFEFEDBFE8E0EEBFFB
:1000E200C0E0D3E00C94CB01C3D25A98ACE2B1E0A9
:1000F200EDD3E0910E03F0910F03309761F4C6D275
:10010200E1E0F0E0CAD2CED2E0916F00E260E0938B
:100112006F00A7D219C0CDD2119731F4B7D2E2E065
:10012200F0E0CCD255D210C0C4D2129731F4AED284
:10013200E3E0F0E0C3D267D207C0BBD2139721F449
:10014200C4D2C9D2CDD2E3D117C10A921A929A93DC
:10015200AA93BA93EA93FA93EFB7EA93A0911003A2
:10016200B0911103119709F06EC0A3D2119769F4EF
:10017200BDD20CF0C4D2CAD214F055246624CBD21C
:10018200CFD2C9D2D3D2D8D25AC093D2139791F533
:10019200E72DF82D31977E2E8F2EA8D20CF0AFD2FC
:1001A200B5D214F05524662400240714080421F45F
:1001B200002409140A0409F002C05A9A91D2EFEFFE
:1001C200FFEFE715F8054CF0EBE3F0E07E2E8F2E03
:1001D200E92DFA2D31979E2EAF2EEFEFFFEFE915A5
:1001E200FA0514F09924AA24B3D29AD2B1D29ED29B
:1001F200B4D225C05ED2129729F5E1E0F0E0BE0E3E
:10020200CF1E74D20CF07BD281D214F05524662416
:10021200ECE3F0E0BE16CF0634F0BB24CC24E1E0E0
:10022200F0E0DE0EEF1EECE3F0E0DE16EF0614F077
:10023200DD24EE249ED274D29CD278D29FD2EAE000
:10024200F0E0A8D21BC052D20CF059D25FD214F007
:10025200552466242ED2129731F48BD261D289D2E0
:1002620065D28CD208C025D2119741F471D258D2EE
:100272006FD25CD272D2EAE0F0E08CD2E991EFBFA9
:10028200F991E991B991A9919991199009901895CB
:10029200EFD186D2A0E0B3E0EE0FFF1FAE0FBF1F7B
:1002A200ED91FD91DF01CBD0A0910A03B0910B0338
:1002B2001197A1F475D2309711F477D20EC07AD289
:1002C200119711F47CD209C075D2129711F47CD225
:1002D20004C070D2139709F47CD23FC06BD210973E
:1002E20011F47CD209F002C060D237C063D21197F8
:1002F20011F474D209F002C062D22FC05BD21297FD
:1003020011F46CD209F002C06FD227C053D21397F6
:1003120011F464D209F002C067D21FC04BD2109709
:1003220011F467D209F002C05FD217C043D211970D
:1003320011F45FD209F002C057D20FC03BD212971C
:1003420011F457D209F002C03FD207C033D213973B
:1003520011F44FD209F001C03CD2A8E0B3E0ED9114
:10036200FD913196FE93EE9325D214972CF0E0E0A6
:10037200E0930803E0930903E991EFBFF991E99152
:10038200B991A9919991899179916991F99019906D
:100392000990189531D045D04CD07894EFE3E4B968
:1003A2005398EAB1E46FEAB9E7B1E360E7B9E7B1BC
:1003B200E77CE7B96BB1E0E04B99E1E0A1E04AD21A
:1003C2001E2EE0E03599E1E045D21E2AE0E03499A4
:1003D200E1E040D21E2AE0E03399E1E03BD2E1299C
:1003E200E62BEBB9E0916F00ED7FE0936F00E0E068
:1003F20072D18DD0FFCFFFCFE8E0E0938000E4E040
:10040200E0938100E0E0E0938500E0938400E4EF74
:10041200E0938900E4E2E0938800E2E0E0936F0079
:100422000895E1E0E0936E00E4E0E5BDE3E8E6BDB7
:100432000895E8E0E0936900E2E0EDBB08951A93C5
:100442000A938D01002E012A29F4D9D141985C9892
:10045200409A5AC0E1E0F0E0E017F10729F4D4D164
:10046200419A5C9A409A50C0E2E0F0E0E017F1074E
:1004720039F428985E985F9A299841985C9A43C00B
:10048200E3E0F0E0E017F10721F4B9D1419A5C9A78
:100492003AC0E4E0F0E0E017F10711F4B5D131C061
:1004A200E5E0F0E0E017F10719F428985E9A27C01A
:1004B200E6E0F0E0E017F10731F428985E9A5F98E1
:1004C200299841981FC0E7E0F0E0E017F10741F4F6
:1004D20028985E985F98299A419A5C9A409A14C02B
:1004E200E8E0F0E0E017F10719F489D141980AC079
:1004F200E9E0F0E0E017F10739F428985E985F9898
:100502002998419A5C984098099119910895789494
:10051200DCD0E0931003E0931103E19957C0339BC1
:1005220019C077D171F4E32DF42D31963E2E4F2E62
:100532003197ECE3F0E03E164F0614F033244424E6
:1005420008C0E1E0F0E05E0E6F1EE0D014F055242A
:10055200662433C0349B21C05CD181F4E32DF42D99
:1005620031973E2E4F2E3196EFEFFFEFE315F40554
:1005720024F0EBE3F0E03E2E4F2E0EC0E52DF62DDB
:1005820031975E2E6F2EEFEFFFEFE515F60524F0A3
:10059200EBE3F0E05E2E6F2E10C0359B0EC039D11A
:1005A20039F4E1E0F0E0E0930C03F0930D0305C0B1
:1005B200E0E0E0930C03E0930D03ADD0B1D0ABD0FB
:1005C200B5D0BAD0EAE0F0E0E5D0A7CF5FD04CC01A
:1005D200789428D185D0E19915C0339B02C027D1E8
:1005E20008C0349B02C027D104C0359B02C023D16E
:1005F20019D1BFD095D0BDD099D0C0D0EAE0F0E0FB
:10060200C9D0E9CF31C078946BD07724882499245B
:10061200AA24E19925C0339B0BC011D17E0E8F1EF7
:10062200ECE3F0E07E168F0614F0772488240FC0E6
:10063200349B0BC004D19E0EAF1EECE3F0E09E167D
:10064200AF0614F09924AA2402C03599F0D080D0C4
:1006520067D07ED06BD081D0EAE0F0E09BD0D9CFDA
:1006620003C07894E19BFECFECB3E070ECBB08953D
:100672000A921A92FA926A937A938A939A93AA9313
:10068200BA93EA93FA93EFB7EA930895E1E0F0E0C0
:10069200E0930A03F0930B030895E0930E03F093A3
:1006A2000F030895E1E0F0E0E0931003F0931103EB
:1006B2000895A0910E03B0910F030895EEDFE0E0DC
:1006C200E0931003E09311030895E0E0E0930A033E
:1006D200E0930B030895E0930E03E0930F03089554
:1006E200E0E0E0931003E09311030895E1E0F0E00D
:1006F2003E0E4F1EECE3F0E03E164F060895332403
:100702004424E1E0F0E05E0E6F1E0895ECE3F0E0B9
:100712005E166F060895A52DB62DEAE0F0E0089565
:10072200B4D0E0930003F09301030895B3D0E093B3
:100732000203F09303030895A32DB42DEAE0F0E041
:10074200A4D0E0930403F0930503A32DB42D0895E0
:10075200A92DBA2DEAE0F0E00895A72DB82DEAE020
:10076200F0E093D0E0930403F0930503A72DB82D96
:100772000895AD2DBE2DEAE0F0E00895AB2DBC2D1D
:10078200EAE0F0E082D0E0930403F0930503AB2D9E
:10079200BC2D08957FD0E0930603F09307030895DC
:1007A200E0910803F091090308952D9A2B982C9853
:1007B2002A980895A0910803B091090308952D98ED
:1007C2002B9A2C982A9808952D982B982C9A2A982F
:1007D20008952D982B982C982A9A0895A0910C038D
:1007E200B0910D03119708952D982B982C982A9863
:1007F2000895A0910C03B0910D03109708952898C5
:100802005E985F9829980895289A5E985F98299A29
:100812000895ACE2B1E05AD0E0910C03F0910D03DF
:1008220030970895BB24CC24DD24EE240895ACE255
:10083200B1E04CD037CFACE2B1E048D051CFACE21E
:10084200B1E044D05A98E1E0F0E00895F195E195E5
:10085200F0400895EE230E2EEA2F19F0EE0F0A94BF
:10086200E9F708950024112490E1AA0FBB1F001C90
:10087200111C0E1A1F0A18F40E0E1F1E01C0A160D1
:100882009A9599F7FD01D001089512D0EBDF0EF48D
:10089200DDDF0895E894B7FF04C0B195A195B0409B
:1008A2006894F7FDD3DFDEDFFD010EF4CFDF08959C
:1008B200E894F7FF02C0CADF6894B7FF06C0B1959B
:1008C200A195B04000F8039400FA0895109639F00B
:1008D200A89580EA9FE00197F1F71197C9F708956B
:00000001FF
