:0A0000000C9446000C9400000C94D0
:10000A00D4010C9400000C9400000C9400000C9491
:10001A0000000C9400000C9400000C9400000C9456
:10002A0000000C94FA010C9400000C9400000C944B
:10003A0000000C9400000C9489020C9400000C94AB
:10004A0000000C9400000C9400000C9400000C9426
:10005A0000000C9400000C9400000C9400000000B6
:10006A0000000000000000000000010001000C0078
:10007A000300680001000C03740001000E037600FF
:10008A000000F894EE27EFBBF1E0F5BFE5BF8DE085
:10009A00A2E0BB27ED938A95E9F780E098E0A0E01B
:1000AA00B1E0ED930197E9F7E8E7F0E085919591E2
:1000BA00009761F0A591B59105901590BF01F001E7
:1000CA0005900D920197E1F7FB01F0CFE0E0EEBB5E
:1000DA00EFEFEDBFE8E0EEBFC0E0D3E00C9407031A
:1000EA00E8E0E0938000E4E0E0938100E0E0E09360
:1000FA008500E0938400E4EFE0938900E4E2E09372
:10010A008800E2E0E0936F000895E1E0E0936E007A
:10011A00E4E0E5BDE3E8E6BD0895E8E0E0936900C0
:10012A00E2E0EDBB08951A930A938D01002E012A8D
:10013A0029F496D241985C98409A5AC0E1E0F0E0DE
:10014A00E017F10729F491D2419A5C9A409A50C07B
:10015A00E2E0F0E0E017F10739F428985E985F9A38
:10016A00299841985C9A43C0E3E0F0E0E017F10770
:10017A0021F476D2419A5C9A3AC0E4E0F0E0E017C2
:10018A00F10711F472D231C0E5E0F0E0E017F107AF
:10019A0019F428985E9A27C0E6E0F0E0E017F10724
:1001AA0031F428985E9A5F98299841981FC0E7E031
:1001BA00F0E0E017F10741F428985E985F98299AD1
:1001CA00419A5C9A409A14C0E8E0F0E0E017F1071F
:1001DA0019F446D241980AC0E9E0F0E0E017F107C5
:1001EA0039F428985E985F982998419A5C984098C3
:1001FA000991199108957894E0E0E0930C03E09353
:10020A000D0338D2E19951C0339B13C039D259F446
:10021A00E52DF62D31965E2E6F2E31973AD214F0D7
:10022A005524662405C03AD23ED214F07724882495
:10023A0033C0349B21C024D281F4E52DF62D3197A9
:10024A005E2E6F2E3196EFEFFFEFE515F60524F0DF
:10025A00EBE3F0E05E2E6F2E0EC0E72DF82D3197FE
:10026A007E2E8F2EEFEFFFEFE715F80524F0EBE374
:10027A00F0E07E2E8F2E10C0359B0EC001D239F4CD
:10028A00E1E0F0E0E0930E03F0930F0305C0E0E035
:10029A00E0930E03E0930F030BD20FD209D213D2CD
:1002AA0018D21CD216D220D2ADCF24D274C07894E0
:1002BA0028D2E0D1E19915C0339B02C02AD208C0E6
:1002CA00349B02C02FD204C0359B02C02BD219D254
:1002DA002DD2F3D12BD2F7D130D200D22ED204D2E2
:1002EA00E9CF59C07894E0E0E0931003E09311035A
:1002FA00C1D19924AA24BB24CC24E19948C0339BB8
:10030A0011C0ACE2B1E0BAD2E92DFA2D31969E2E97
:10031A00AF2E3197ECE3F0E09E16AF0614F0992465
:10032A00AA241CC0349B11C0ACE2B1E0A7D2EB2DC9
:10033A00FC2D3196BE2ECF2E3197ECE3F0E0BE169F
:10034A00CF0614F0BB24CC2409C0359B07C0E1D1E9
:10035A00E1E0F0E0E0931003F0931103F3D1ADD1A3
:10036A00F1D1B1D1F4D1BAD1F2D1BED100240B145A
:10037A000C0451F4002409140A0431F4A091100366
:10038A00B0911103119709F001C05A9AB6CF03C070
:10039A007894E19BFECFECB3E070ECBB0895DCD11E
:1003AA005A98ACE2B1E06AD2E5D141F4A3D1E2E0D5
:1003BA00F0E03E2E4F2E5ED17ADF16C0032C0428C1
:1003CA0061F498D1E1E0F0E03E2E4F2EE0916F000B
:1003DA00E260E0936F00DCDF07C0D1D129F48AD153
:1003EA003324442447D17EDFFFC00A921A929A939B
:1003FA00AA93BA93EA93FA93EFB7EA93BBD191F42B
:10040A00C3D11CF05524662449D14DD114F0772468
:10041A0088244ED152D14CD156D15BD15FD1A52D72
:10042A00B62D65C0032C0428B1F5E92DFA2D3197B4
:10043A009E2EAF2EA9D11CF0552466242FD133D17C
:10044A0014F077248824002409140A0421F40024CF
:10045A000B140C0409F001C00DD1EFEFFFEFE91501
:10046A00FA054CF0EBE3F0E09E2EAF2EEB2DFC2DBF
:10047A003197BE2ECF2EEFEFFFEFEB15FC0514F0F0
:10048A00BB24CC245FD119D15DD11DD160D126D135
:10049A00A92DBA2D2CC073D169F5E1E0F0E0DE0E8A
:1004AA00EF1E72D11CF055246624F8D0FCD014F04B
:1004BA0077248824ECE3F0E0DE16EF062CF0DD2446
:1004CA00EE24A0E0B3E065D1A0910003B09101034E
:1004DA00DC972CF0E0E0E0930003E093010326D1DF
:1004EA00ECD024D1F0D029D1F9D0AD2DBE2DEAE03F
:1004FA00F0E0FAD0E991EFBFF991E991B991A991A8
:10050A00999119900990189527D149D1A2E0B3E0A1
:10051A00EE0FFF1FAE0FBF1FED91FD91DF0103DE4E
:10052A00A0910C03B0910D031197A1F438D1309723
:10053A0011F43AD10EC03DD1119711F43FD109C03F
:10054A0038D1129711F43FD104C033D1139709F46B
:10055A003FD13FC02ED1109711F43FD109F002C00C
:10056A0023D137C026D1119711F437D109F002C02F
:10057A0025D12FC01ED1129711F42FD109F002C034
:10058A0032D127C016D1139711F427D109F002C02E
:10059A002AD11FC00ED1109711F42AD109F002C036
:1005AA0022D117C006D1119711F422D109F002C045
:1005BA001AD10FC0FED0129711F41AD109F002C055
:1005CA0002D107C0F6D0139711F412D109F001C075
:1005DA00FFD0AAE0B3E0DDD0ECD014972CF0E0E035
:1005EA00E0930A03E0930B03E991EFBFF991E991D4
:1005FA00B991A9919991899179916991F9901990F3
:10060A00099018956DDD81DD88DD7894EFE3E4B912
:10061A005398EAB1E46FEAB9E7B1E360E7B9E7B141
:10062A00E77CE7B96BB1E0E04B99E1E0A1E0EAD001
:10063A001E2EE0E03599E1E0E5D01E2AE0E034998B
:10064A00E1E0E0D01E2AE0E03399E1E0DBD0E129E5
:10065A00E62BEBB90FD033244424CDDDFFCFFFCFF7
:10066A0028985E985F9829980895289A5E985F98C6
:10067A00299A0895E0916F00ED7FE0936F00089545
:10068A00ACE2B1E0FBD0E0910E03F0910F0330979A
:10069A000895ECE3F0E05E166F060895E1E0F0E0FD
:1006AA007E0E8F1E0895ECE3F0E07E168F06089505
:1006BA00A72DB82DEAE0F0E00895BFD0E093020339
:1006CA00F09303030895BED0E0930403F093050367
:1006DA000895A52DB62DEAE0F0E00895AED0E09396
:1006EA000603F09307030895ADD0E0930803F0934F
:1006FA0009030895E1E0F0E0E0930C03F0930D03A1
:10070A000895DD24EE24E0E0E0930003E093010382
:10071A000895ACE2B1E0B2D0E0916F00E260E093FC
:10072A006F000895ACE2B1E0A9D0A4CFA091000374
:10073A00B0910103EAE0F0E00895AD2DBE2DEAE0A4
:10074A00F0E00895AB2DBC2DEAE0F0E00895A92D64
:10075A00BA2DEAE0F0E008950A921A92FA926A93A0
:10076A007A938A939A93AA93BA93EA93FA93EFB7EE
:10077A00EA930895E1E0F0E0E315F4050895E2E074
:10078A00F0E0E315F4050895E1E0F0E05E0E6F1E77
:10079A0080CFED91FD913196FE93EE930895E0910D
:1007AA000A03F0910B0308952D9A2B982C982A98F6
:1007BA000895A0910A03B0910B0308952D982B9ADE
:1007CA002C982A9808952D982B982C9A2A9808954F
:1007DA002D982B982C982A9A0895A0910E03B091DF
:1007EA000F03119708952D982B982C982A980895FD
:1007FA00A0910E03B0910F0310970895F195E1951A
:10080A00F0400895EE230E2EEA2F19F0EE0F0A9407
:10081A00E9F708950024112490E1AA0FBB1F001CD8
:10082A00111C0E1A1F0A18F40E0E1F1E01C0A16019
:10083A009A9599F7FD01D001089512D0EBDF0EF4D5
:10084A00DDDF0895E894B7FF04C0B195A195B040E3
:10085A006894F7FDD3DFDEDFFD010EF4CFDF0895E4
:10086A00E894F7FF02C0CADF6894B7FF06C0B195E3
:10087A00A195B04000F8039400FA0895109639F053
:10088A00A89580EA9FE00197F1F71197C9F70895B3
:00000001FF
