:040000000C943C0020
:100004000C9400000C9400000C9400000C9400006C
:100014000C9400000C9400000C9400000C9400005C
:100024000C9400000C9400000C94EA000C9436012B
:100034000C9400000C9400000C9400000C9400003C
:100044000C9400000C9400000C9400000C9400002C
:100054000C9400000C9400000C9400000C9400001C
:100064000C940000000000000000000008000300E1
:1000740068000000F894EE27EFBBF1E0F5BFE5BFA0
:100084008DE0A2E0BB27ED938A95E9F780E098E044
:10009400A0E0B1E0ED930197E9F7E0E7F0E08591A6
:1000A4009591009761F0A591B59105901590BF01C8
:1000B400F00105900D920197E1F7FB01F0CFE0E02C
:1000C400EEBBEFEFEDBFE8E0EEBFC0E0D3E00C9491
:1000D4008D01EDE0E0938000EDE3E0938900E9E039
:1000E400E09388000895EAE0E0938100E7E0E0937C
:1000F4008B00E0EDE0938A00E6E0E0936F00089562
:100104001A930A938D01002E012A29F40DD15B98CC
:100114005C985A9A5AC0E1E0F0E0E017F10729F43C
:1001240008D15B9A5C9A5A9A50C0E2E0F0E0E0177A
:10013400F10739F428985E985F9A29985B985C9A3D
:1001440043C0E3E0F0E0E017F10721F4EDD05B9A5F
:100154005C9A3AC0E4E0F0E0E017F10711F4E9D06A
:1001640031C0E5E0F0E0E017F10719F428985E9A51
:1001740027C0E6E0F0E0E017F10731F428985E9A32
:100184005F9829985B981FC0E7E0F0E0E017F1075B
:1001940041F428985E985F98299A5B9A5C9A5A9AD7
:1001A40014C0E8E0F0E0E017F10719F4BDD05B9863
:1001B4000AC0E9E0F0E0E017F10739F428985E9806
:1001C4005F9829985B9A5C985A98099119910895B7
:1001D4000A921A929A93AA93BA93EA93FA93EFB76C
:1001E400EA93E1E0F0E03E0E4F1EECE3F0E03E1651
:1001F4004F0634F033244424E1E0F0E05E0E6F1E39
:10020400ECE3F0E05E166F0634F055246624E1E07A
:10021400F0E07E0E8F1EECE3F0E07E168F0614F005
:10022400772488248BD0ABD0E0930003F0930103B0
:1002340085D0AAD0E0930203F093030384D09FD027
:10024400E0930403F09305037ED09ED0E09306036D
:10025400F0930703E991EFBFF991E991B991A9915D
:1002640099911990099018950A921A92FA926A93A0
:100274007A938A939A93AA93BA93EA93FA93EFB7E9
:10028400EA93E92DFA2DA0E0B3E0EE0FFF1FAE0FC5
:10029400BF1FED91FD91DF0133DF092C0A2829F4FA
:1002A4002D9A2B982C982A981DC0E1E0F0E0E915CE
:1002B400FA0529F42D982B9A2C982A9813C0E2E079
:1002C400F0E0E915FA0529F42D982B982C9A2A9830
:1002D40009C0E3E0F0E0E915FA0521F42D982B9824
:1002E4002C982A9AE1E0F0E09E0EAF1EE4E0F0E0E4
:1002F4009E16AF0614F09924AA24E991EFBFF99150
:10030400E991B991A9919991899179916991F9901A
:10031400199009901895DDDEE6DE7894EFE3E4B9F0
:10032400EFEFEAB9FFCFFFCF28985E985F9829983E
:100334000895289A5E985F98299A0895A72DB82D54
:10034400EAE0F0E00895A52DB62DEAE0F0E0089586
:10035400F195E195F04008950024112490E1AA0F4D
:10036400BB1F001C111C0E1A1F0A18F40E0E1F1EB0
:1003740001C0A1609A9599F7FD01D001089512D0AA
:10038400EBDF0EF4E5DF0895E894B7FF04C0B19500
:10039400A195B0406894F7FDDBDFDEDFFD010EF4CC
:1003A400D7DF0895E894F7FF02C0D2DF6894B7FF5F
:1003B40006C0B195A195B04000F8039400FA0895E1
:00000001FF
