:060000000C9446000C9474
:1000060000000C9475000C9400000C9400000C94F5
:1000160000000C9400000C9400000C9400000C945A
:1000260000000C9400000C949A000C9400000C94B0
:1000360000000C9400000C9400000C943D010C94FC
:1000460000000C9400000C9400000C9400000C942A
:1000560000000C9400000C9400000C9400000C941A
:100066000000000000000000000000000000010089
:1000760001000C000300680001000A03740001007F
:100086000C0376000000F894EE27EFBBF1E0F5BF15
:10009600E5BF8DE0A2E0BB27ED938A95E9F780E006
:1000A60098E0A0E0B1E0ED930197E9F7E8E7F0E02A
:1000B60085919591009761F0A591B5910590159060
:1000C600BF01F00105900D920197E1F7FB01F0CF1A
:1000D600E0E0EEBBEFEFEDBFE8E0EEBFC0E0D3E05F
:1000E6000C94BF01AAD24298ACE2B1E0DFD3B3D2FE
:1000F600119739F4B5D2E2E0F0E0B9D2BDD24DD2D3
:1001060015C0C0D261F4ACD2E1E0F0E0B0D2C0D20A
:10011600E0916F00E260E0936F0088D207C09BD247
:10012600129721F49DD2BBD2A7D252D217C10A92FE
:100136001A929A93AA93BA93EA93FA93EFB7EA9329
:10014600A0911003B0911103119709F06EC083D2EC
:10015600119769F4AAD20CF0B1D2B7D214F0552493
:100166006624B8D2BCD2B6D2C0D2C5D25AC08AD2C0
:1001760099F5E72DF82D31977E2E8F2E3196C7D221
:100186000CF09CD2A2D214F0552466240024071445
:10019600080421F4002409140A0409F002C0429A52
:1001A6006BD2EFEFFFEFE715F8054CF0EBE3F0E06D
:1001B6007E2E8F2EE92DFA2D31979E2EAF2EEFEF44
:1001C600FFEFE915FA0514F09924AA24ABD287D2D9
:1001D600A9D28BD2ACD225C03ED2129729F5E1E046
:1001E600F0E0BE0ECF1E61D20CF068D26ED214F0D3
:1001F60055246624ECE3F0E0BE16CF0634F0BB24AB
:10020600CC24E1E0F0E0DE0EEF1EECE3F0E0DE16DB
:10021600EF0614F0DD24EE2496D261D294D265D294
:1002260097D2EAE0F0E0A0D21BC03FD20CF046D253
:100236004CD214F0552466240ED2129731F483D290
:100246004ED281D252D284D208C005D2119741F43F
:1002560069D245D267D249D26AD2EAE0F0E084D2C6
:10026600E991EFBFF991E991B991A9919991199005
:1002760009901895E2D17ED2A0E0B3E0EE0FFF1F01
:10028600AE0FBF1FED91FD91DF01C6D0A0910A030D
:10029600B0910B031197A1F46DD2309711F46FD280
:1002A6000EC072D2119711F474D209C06DD2129792
:1002B60011F474D204C068D2139709F474D23FC003
:1002C60063D2109711F474D209F002C058D237C025
:1002D6005BD2119711F46CD209F002C05AD22FC02A
:1002E60053D2129711F464D209F002C067D227C024
:1002F6004BD2139711F45CD209F002C05FD21FC033
:1003060043D2109711F45FD209F002C057D217C03A
:100316003BD2119711F457D209F002C04FD20FC049
:1003260033D2129711F44FD209F002C037D207C068
:100336002BD2139711F447D209F001C034D2A8E0AA
:10034600B3E0ED91FD913196FE93EE931DD2149795
:100356002CF0E0E0E0930803E0930903E991EFBF96
:10036600F991E991B991A9919991899179916991B7
:10037600F9901990099018952CD040D047D07894D0
:10038600EFE3E4B95398EAB1E46FEAB9E7B1E360A1
:10039600E7B9E7B1E77CE7B96BB1E0E04899E1E09E
:1003A600A1E048D21E2EE0E04999E1E043D21E2AA0
:1003B600E0E04A99E1E03ED21E2AE0E04B99E1E016
:1003C60039D2E129E62BEBB904D269D18DD0FFCF22
:1003D600FFCFE8E0E0938000E4E0E0938100E0E016
:1003E600E0938500E0938400E4EFE0938900E4E283
:1003F600E0938800E2E0E0936F000895E1E0E09387
:100406006E00E4E0E5BDE3E8E6BD0895E8E0E093CC
:100416006900E2E0EDBB08951A930A938D01002E60
:10042600012A29F4DCD1289829982A9A5AC0E1E0B1
:10043600F0E0E017F10729F4D7D1289A299A2A9AE9
:1004460050C0E2E0F0E0E017F10739F45C985D98FF
:100456005E9A5F982898299A43C0E3E0F0E0E01797
:10046600F10721F4BCD1289A299A3AC0E4E0F0E0D9
:10047600E017F10711F4B8D131C0E5E0F0E0E0177C
:10048600F10719F45C985D9A27C0E6E0F0E0E01702
:10049600F10731F45C985D9A5E985F9828981FC0C2
:1004A600E7E0F0E0E017F10741F45C985D985E98AC
:1004B6005F9A289A299A2A9A14C0E8E0F0E0E01791
:1004C600F10719F48CD128980AC0E9E0F0E0E017AA
:1004D600F10739F45C985D985E985F98289A299898
:1004E6002A980991199108957894E0E0E0930A0317
:1004F600E0930B036ED1E1994EC04B9B10C079D1AE
:1005060029F405D114F03324442408C0E1E0F0E0D6
:100516005E0E6F1EDAD014F05524662433C04A9B53
:1005260021C067D181F4E32DF42D31973E2E4F2E55
:100536003196EFEFFFEFE315F40524F0EBE3F0E07F
:100546003E2E4F2E0EC0E52DF62D31975E2E6F2EC8
:10055600EFEFFFEFE515F60524F0EBE3F0E05E2E96
:100566006F2E10C0499B0EC044D139F4E1E0F0E093
:10057600E0930C03F0930D0305C0E0E0E0930C0359
:10058600E0930D03A7D0ABD0A5D0AFD0B4D0EAE0AE
:10059600F0E0EAD0B0CF64D04CC0789433D16CD0C0
:1005A600E19915C04B9B02C032D108C04A9B02C0DC
:1005B60032D104C0499B02C02ED124D1C4D08FD0E1
:1005C600C2D093D0C5D0EAE0F0E0CED0E9CF31C0BA
:1005D600789452D0772488249924AA24E19925C0B6
:1005E6004B9B0BC01CD17E0E8F1EECE3F0E07E16FB
:1005F6008F0614F0772488240FC04A9B0BC00FD1B6
:100606009E0EAF1EECE3F0E09E16AF0614F09924A2
:10061600AA2402C04999FBD085D061D083D065D089
:1006260086D0EAE0F0E0A0D0D9CF03C07894E19B71
:10063600FECFECB3E070ECBB08950A921A92FA92E0
:100646006A937A938A939A93AA93BA93EA93FA93BC
:10065600EFB7EA930895A0910E03B0910F030895A2
:10066600E1E0F0E0E0930A03F0930B030895E093D2
:100676000E03F0930F030895E0E0E0931003E09378
:1006860011030895E0910E03F0910F03309708953A
:10069600E1E0F0E0E0931003F09311030895E0E049
:1006A600E0930E03E0930F030895E1E0F0E03E0EC1
:1006B6004F1EECE3F0E03E164F0608953324442423
:1006C600E1E0F0E05E0E6F1E0895ECE3F0E05E16EA
:1006D6006F060895A52DB62DEAE0F0E00895C5D081
:1006E600E0930003F09301030895C4D0E09302035E
:1006F600F09303030895A32DB42DEAE0F0E0B5D0FE
:10070600E0930403F0930503A32DB42D0895E32D80
:10071600F42D31963E2E4F2E3197ECE3F0E03E1647
:100726004F060895A92DBA2DEAE0F0E00895A72D09
:10073600B82DEAE0F0E099D0E0930403F0930503C6
:10074600A72DB82D0895AD2DBE2DEAE0F0E0089551
:10075600AB2DBC2DEAE0F0E088D0E0930403F093E3
:100766000503AB2DBC2D089585D0E0930603F093C9
:1007760007030895E0910803F091090308952C9A60
:100786002D98409841980895A0910803B0910903C7
:1007960008952C982D9A4098419808952C982D9854
:1007A600409A419808952C982D984098419A08951A
:1007B600A0910C03B0910D03119708952C982D98D4
:1007C600409841980895A0910C03B0910D0310979D
:1007D6000895E0916F00ED7FE0936F0008955C98B7
:1007E6005D985E985F9808955C9A5D985E985F9AAA
:1007F6000895ACE2B1E05AD0E0910C03F0910D03FC
:1008060030970895BB24CC24DD24EE240895ACE271
:10081600B1E04CD03DCFACE2B1E048D02DCFACE258
:10082600B1E044D04298E1E0F0E00895F195E19519
:10083600F0400895EE230E2EEA2F19F0EE0F0A94DB
:10084600E9F708950024112490E1AA0FBB1F001CAC
:10085600111C0E1A1F0A18F40E0E1F1E01C0A160ED
:100866009A9599F7FD01D001089512D0EBDF0EF4A9
:10087600DDDF0895E894B7FF04C0B195A195B040B7
:100886006894F7FDD3DFDEDFFD010EF4CFDF0895B8
:10089600E894F7FF02C0CADF6894B7FF06C0B195B7
:1008A600A195B04000F8039400FA0895109639F027
:1008B600A89580EA9FE00197F1F71197C9F7089587
:00000001FF
