:040000000C94460016
:100004000C9400000C9475000C9400000C940000F7
:100014000C9400000C9400000C9400000C9400005C
:100024000C9400000C9400000C949A000C940000B2
:100034000C9400000C9400000C9400000C943D01FE
:100044000C9400000C9400000C9400000C9400002C
:100054000C9400000C9400000C9400000C9400001C
:100064000C940000000000000000000000000000EC
:10007400010001000C000300680001000A03740081
:1000840001000C0376000000F894EE27EFBBF1E0CA
:10009400F5BFE5BF8DE0A2E0BB27ED938A95E9F7B4
:1000A40080E098E0A0E0B1E0ED930197E9F7E8E79C
:1000B400F0E085919591009761F0A591B591059037
:1000C4001590BF01F00105900D920197E1F7FB0136
:1000D400F0CFE0E0EEBBEFEFEDBFE8E0EEBFC0E055
:1000E400D3E00C94BF01A9D24298ACE2B1E0DED3D4
:1000F400B2D2119739F4B4D2E2E0F0E0B8D2BCD273
:100104004CD215C0BFD261F4ABD2E1E0F0E0AFD283
:10011400BFD2E0916F00E260E0936F0087D207C026
:100124009AD2129721F49CD2BAD2A6D251D217C134
:100134000A921A929A93AA93BA93EA93FA93EFB70C
:10014400EA93A0911003B0911103119709F06EC0C6
:1001540082D2119769F4A9D20CF0B0D2B6D214F0BD
:1001640055246624B7D2BBD2B5D2BFD2C4D25AC0AA
:1001740089D299F5E72DF82D31977E2E8F2E319661
:10018400C6D20CF09BD2A1D214F0552466240024CC
:100194000714080421F4002409140A0409F002C015
:1001A400429A6AD2EFEFFFEFE715F8054CF0EBE364
:1001B400F0E07E2E8F2EE92DFA2D31979E2EAF2E54
:1001C400EFEFFFEFE915FA0514F09924AA24AAD257
:1001D40086D2A8D28AD2ABD225C03DD2129729F5B5
:1001E400E1E0F0E0BE0ECF1E60D20CF067D26DD21B
:1001F40014F055246624ECE3F0E0BE16CF0634F088
:10020400BB24CC24E1E0F0E0DE0EEF1EECE3F0E0F2
:10021400DE16EF0614F0DD24EE2495D260D293D2DC
:1002240064D296D2EAE0F0E09FD21BC03ED20CF03A
:1002340045D24BD214F0552466240DD2129731F4D2
:1002440082D24DD280D251D283D208C004D2119727
:1002540041F468D244D266D248D269D2EAE0F0E0EE
:1002640083D2E991EFBFF991E991B991A99199915B
:10027400199009901895E1D17DD2A0E0B3E0EE0F7A
:10028400FF1FAE0FBF1FED91FD91DF01C5D0A091FF
:100294000A03B0910B031197A1F46CD2309711F4B7
:1002A4006ED20EC071D2119711F473D209C06CD200
:1002B400129711F473D204C067D2139709F473D25E
:1002C4003FC062D2109711F473D209F002C057D222
:1002D40037C05AD2119711F46BD209F002C059D227
:1002E4002FC052D2129711F463D209F002C066D221
:1002F40027C04AD2139711F45BD209F002C05ED230
:100304001FC042D2109711F45ED209F002C056D237
:1003140017C03AD2119711F456D209F002C04ED246
:100324000FC032D2129711F44ED209F002C036D265
:1003340007C02AD2139711F446D209F001C033D270
:10034400A8E0B3E0ED91FD913196FE93EE931CD2BB
:1003540014972CF0E0E0E0930803E0930903E9919B
:10036400EFBFF991E991B991A99199918991799105
:100374006991F9901990099018952BD03FD046D0E7
:100384007894EFE3E4B9EAB1E07FEAB9EAB1E06F67
:10039400EAB9E7B1E760E7B96BB1E0E04899E1E0B9
:1003A400A1E048D21E2EE0E04999E1E043D21E2AA2
:1003B400E0E04A99E1E03ED21E2AE0E04B99E1E018
:1003C40039D2E129E62BEBB904D269D18DD0FFCF24
:1003D400FFCFE8E0E0938000E4E0E0938100E0E018
:1003E400E0938500E0938400E4EFE0938900E4E285
:1003F400E0938800E2E0E0936F000895E1E0E09389
:100404006E00E4E0E5BDE3E8E6BD0895E8E0E093CE
:100414006900E2E0EDBB08951A930A938D01002E62
:10042400012A29F4DCD1289829982A9A5AC0E1E0B3
:10043400F0E0E017F10729F4D7D1289A299A2A9AEB
:1004440050C0E2E0F0E0E017F10739F45C985D9801
:100454005E9A5F982898299A43C0E3E0F0E0E01799
:10046400F10721F4BCD1289A299A3AC0E4E0F0E0DB
:10047400E017F10711F4B8D131C0E5E0F0E0E0177E
:10048400F10719F45C985D9A27C0E6E0F0E0E01704
:10049400F10731F45C985D9A5E985F9828981FC0C4
:1004A400E7E0F0E0E017F10741F45C985D985E98AE
:1004B4005F9A289A299A2A9A14C0E8E0F0E0E01793
:1004C400F10719F48CD128980AC0E9E0F0E0E017AC
:1004D400F10739F45C985D985E985F98289A29989A
:1004E4002A980991199108957894E0E0E0930A0319
:1004F400E0930B036ED1E1994EC04B9B10C079D1B0
:1005040029F405D114F03324442408C0E1E0F0E0D8
:100514005E0E6F1EDAD014F05524662433C04A9B55
:1005240021C067D181F4E32DF42D31973E2E4F2E57
:100534003196EFEFFFEFE315F40524F0EBE3F0E081
:100544003E2E4F2E0EC0E52DF62D31975E2E6F2ECA
:10055400EFEFFFEFE515F60524F0EBE3F0E05E2E98
:100564006F2E10C0499B0EC044D139F4E1E0F0E095
:10057400E0930C03F0930D0305C0E0E0E0930C035B
:10058400E0930D03A7D0ABD0A5D0AFD0B4D0EAE0B0
:10059400F0E0EAD0B0CF64D04CC0789433D16CD0C2
:1005A400E19915C04B9B02C032D108C04A9B02C0DE
:1005B40032D104C0499B02C02ED124D1C4D08FD0E3
:1005C400C2D093D0C5D0EAE0F0E0CED0E9CF31C0BC
:1005D400789452D0772488249924AA24E19925C0B8
:1005E4004B9B0BC01CD17E0E8F1EECE3F0E07E16FD
:1005F4008F0614F0772488240FC04A9B0BC00FD1B8
:100604009E0EAF1EECE3F0E09E16AF0614F09924A4
:10061400AA2402C04999FBD085D061D083D065D08B
:1006240086D0EAE0F0E0A0D0D9CF03C07894E19B73
:10063400FECFECB3E070ECBB08950A921A92FA92E2
:100644006A937A938A939A93AA93BA93EA93FA93BE
:10065400EFB7EA930895A0910E03B0910F030895A4
:10066400E1E0F0E0E0930A03F0930B030895E093D4
:100674000E03F0930F030895E0E0E0931003E0937A
:1006840011030895E0910E03F0910F03309708953C
:10069400E1E0F0E0E0931003F09311030895E0E04B
:1006A400E0930E03E0930F030895E1E0F0E03E0EC3
:1006B4004F1EECE3F0E03E164F0608953324442425
:1006C400E1E0F0E05E0E6F1E0895ECE3F0E05E16EC
:1006D4006F060895A52DB62DEAE0F0E00895C5D083
:1006E400E0930003F09301030895C4D0E093020360
:1006F400F09303030895A32DB42DEAE0F0E0B5D000
:10070400E0930403F0930503A32DB42D0895E32D82
:10071400F42D31963E2E4F2E3197ECE3F0E03E1649
:100724004F060895A92DBA2DEAE0F0E00895A72D0B
:10073400B82DEAE0F0E099D0E0930403F0930503C8
:10074400A72DB82D0895AD2DBE2DEAE0F0E0089553
:10075400AB2DBC2DEAE0F0E088D0E0930403F093E5
:100764000503AB2DBC2D089585D0E0930603F093CB
:1007740007030895E0910803F091090308952C9A62
:100784002D98409841980895A0910803B0910903C9
:1007940008952C982D9A4098419808952C982D9856
:1007A400409A419808952C982D984098419A08951C
:1007B400A0910C03B0910D03119708952C982D98D6
:1007C400409841980895A0910C03B0910D0310979F
:1007D4000895E0916F00ED7FE0936F0008955C98B9
:1007E4005D985E985F9808955C9A5D985E985F9AAC
:1007F4000895ACE2B1E05AD0E0910C03F0910D03FE
:1008040030970895BB24CC24DD24EE240895ACE273
:10081400B1E04CD03DCFACE2B1E048D02DCFACE25A
:10082400B1E044D04298E1E0F0E00895F195E1951B
:10083400F0400895EE230E2EEA2F19F0EE0F0A94DD
:10084400E9F708950024112490E1AA0FBB1F001CAE
:10085400111C0E1A1F0A18F40E0E1F1E01C0A160EF
:100864009A9599F7FD01D001089512D0EBDF0EF4AB
:10087400DDDF0895E894B7FF04C0B195A195B040B9
:100884006894F7FDD3DFDEDFFD010EF4CFDF0895BA
:10089400E894F7FF02C0CADF6894B7FF06C0B195B9
:1008A400A195B04000F8039400FA0895109639F029
:1008B400A89580EA9FE00197F1F71197C9F7089589
:00000001FF
